:020000040800F2
:10000000980A002049010008BD0F0008250F0008CC
:1000100000000000000000000000000000000000E0
:10002000000000000000000000000000A91300080C
:100030000000000000000000C9110008AB13000818
:100040005B010008000000005B0100085B01000884
:100050005B0100085B0100085B0100085B01000810
:10006000000000005B0100085B0100085B01000864
:100070005B0100085B0100085B0100080000000054
:100080005B01000800000000000000005B010008A8
:10009000000000005B0100085B0100085B01000834
:1000A0005B0100085B0100085B0100085B010008C0
:1000B0005B010008000000000000000000000000DC
:1000C00000F002F800F030F80CA030C8083824180E
:1000D0002D18A246671EAB4654465D46AC4201D180
:1000E00000F022F87E460F3E0FCCB6460126334282
:1000F00000D0FB1AA246AB4633431847E413000076
:10010000041400000023002400250026103A01D327
:1001100078C1FBD8520700D330C100D50B607047BF
:100120001FB51FBD10B510BD00F0FAF81146FFF75E
:10013000F7FF01F08FF900F012F903B4FFF7F2FFB7
:1001400003BC00F019F90000074880470748004742
:10015000FEE7FEE7FEE7FEE7FEE7FEE704480549A7
:10016000054A064B704700000D140008C100000846
:1001700098040020980A0020980600209806002085
:1001800001E004C0091F0429FBD28B0701D50280BE
:10019000801CC90700D00270704700290BD0C3072C
:1001A00002D00270401C491E022904D3830702D5E5
:1001B0000280801C891EE3E70022EEE70022DFE7D1
:1001C000002203098B422CD3030A8B4211D3002354
:1001D0009C464EE003460B433CD4002243088B422E
:1001E00031D303098B421CD3030A8B4201D39446BB
:1001F0003FE0C3098B4201D3CB01C01A52418309AE
:100200008B4201D38B01C01A524143098B4201D367
:100210004B01C01A524103098B4201D30B01C01A92
:100220005241C3088B4201D3CB00C01A524183080C
:100230008B4201D38B00C01A524143088B4201D339
:100240004B00C01A5241411A00D201465241104699
:1002500070475DE0CA0F00D04942031000D340420E
:10026000534000229C4603098B422DD3030A8B4244
:1002700012D3FC22890112BA030A8B420CD38901E2
:1002800092118B4208D3890192118B4204D38901C8
:100290003AD0921100E08909C3098B4201D3CB0106
:1002A000C01A524183098B4201D38B01C01A5241BB
:1002B00043098B4201D34B01C01A524103098B42BF
:1002C00001D30B01C01A5241C3088B4201D3CB00AA
:1002D000C01A524183088B4201D38B00C01A52418D
:1002E000D9D243088B4201D34B00C01A5241411A64
:1002F00000D20146634652415B10104601D3404292
:10030000002B00D54942704763465B1000D3404242
:1003100001B50020C046C04602BD70477047704717
:10032000754600F025F8AE46050069465346C008FC
:10033000C000854618B020B5FFF710FF60BC00274D
:100340004908B6460026C0C5C0C5C0C5C0C5C0C5A1
:10035000C0C5C0C5C0C5403D49008D46704710B5F9
:100360000446C046C0462046FFF7E7FE10BD000029
:10037000004870473404002001491820ABBEFEE756
:1003800026000200704770B58D180478401CA20743
:10039000920F01D10278401C231106D10378401C32
:1003A00003E00678401C0E70491C521EF9D1002B48
:1003B00015D002780C2634408A1A401C0C2C03D02D
:1003C000A401121B9B1C08E004782402121B401C91
:1003D000F8E714780C70491C521C5B1EF9D5A94231
:1003E000D3D3002070BD72B6FEE7000070B504469E
:1003F00000F0C0F80546601C02D0044800782418BC
:1004000000F0B8F8401BA042FAD370BD00000020F5
:10041000F0B50023032498E001259D402A407DD0BB
:100420000E79B607B60F012E01D0022E16D18668BE
:100430002746B4465E00B646B7406646BE43B4465D
:10044000CF687646B7406646374387604668AE4316
:100450000D79ED06ED0F9D40354345600D79ED4377
:10046000AD0708D0C5685F002646BE40B5438E681C
:10047000BE402E43C6600D79AD07AD0F022D0ED1E3
:10048000DD08AD002D18AC462D6A5E07F60E0F276D
:10049000B740BD430F69B7402F4365462F620568DB
:1004A0005F002646BE40B5430E79B607B60FBE4084
:1004B0002E4306604D68AD03AD0F45D09E08264D16
:1004C000B6007519AC462D6E9E07F60E0F27B74085
:1004D000BD4305273F07B84201D100270FE01F4F5A
:1004E000B84201D101270AE01D4FB84201D10227CD
:1004F00005E01C4FB84201D1032700E00527B740B3
:100500002F4365462F66144E803635684F689543F5
:10051000FF0300D515433560756800E014E04F68AF
:100520009543BF0300D5154375600B4E35684F6882
:100530009543FF0200D51543356075684F689543B4
:10054000BF0200D5154375605B1C0A681546DD4087
:1005500000D061E7F0BD0000001802400004005028
:1005600000080050000C0050002A01D08161704743
:1005700081627047014880687047000000000020D9
:100580000248816802788918816070470000002065
:1005900010B508480024016882151143016003204A
:1005A00000F00AF8002801D0012401E000F028F84A
:1005B000204610BD0020024070B50F4E0024317857
:1005C0000546002915D07D20C000FFF7F9FD014642
:1005D0000A480068FFF7F4FD00F08CFC002808D101
:1005E000042D06D200222946401E00F01FF8756037
:1005F00000E00124204670BD000000200C00002017
:1006000008B50948016801221143016000681040E3
:10061000009005484038C26B01040A43C263C06BB6
:100620000840009008BD00004010024010B500F0E6
:10063000EFFE10BD10B50F4C21680322520291430A
:1006400001432160C11FFF39FA390ED10A48062142
:10065000006848430949FFF7B3FD401C02E0002849
:1006600005D0401E61694905F9D4002010BD032062
:1006700010BD0000007000400C00002040420F0040
:10068000F8B50F46060043D04D4D28684007400F8F
:10069000B84213D22868C008C00038432860FFF76A
:1006A00069FF044605E0FFF765FF011B45488142ED
:1006B00061D828684007400FB842F4D13068424CF6
:1006C00081070DD5400704D5A06807210903084319
:1006D000A060A0680F2109028843B1680843A060A8
:1006E0003078C00732D0706801280AD002280BD0B9
:1006F00000280FD03449403103280ED0C96989073A
:1007000004E02168890301E021688901002906DBF2
:100710000120F8BD21684905F8E7096AEFE7A168FB
:10072000C908C9000143A160FFF724FF009006E05B
:10073000FFF720FF0099411A224881421BD8A06888
:10074000382108407168C9008842F1D12868400703
:10075000400FB84217D91A480168C908C90039437F
:100760000160FFF707FF054607E0FFF703FF411BA6
:100770001448814201D90320F8BD114800684007A0
:10078000400FB842F1D13078400706D5A068072164
:1007900009038843F1680843A06000F01DF8A168D0
:1007A0003C2289091140094A515CC906C90EC8405A
:1007B0000749086007480068FFF7FEFEF8BD000023
:1007C000002002408813000000100240A01400081E
:1007D0000C0000200400002010B5204CA068204A26
:1007E0008006400F16D0A0688006410F50100129E6
:1007F0000FD0A1688906490F022912D0A06880068F
:10080000400F042823D0A0688006400F032821D081
:10081000002010BD206801218004400F8140104657
:1008200012E0E1688B07E1689B0F4906490F491CFC
:10083000032B00D01046FFF7C3FCE1684904490EC2
:100840004843E168490F491CFFF7BAFC10BD01207D
:10085000C00310BD7D20000210BD0000001002404A
:100860000024F400F8B504007ED020783827C007B3
:10087000EB4D002846D0A868E96838408907890F01
:10088000102802D008280BD001E0032908D001204D
:100890006268000482420AD129680143296015E098
:1008A000286880032ED560680028DDD02AE0052363
:1008B00001211B0489049A422A6802D10A432A6052
:1008C000EAE782432A602868884328606068002835
:1008D0000CD0FFF74FFE064604E0FFF74BFE801BEF
:1008E000642873D828688003F7D50BE0FFF742FE31
:1008F000064604E0FFF73EFE801B6428F1D8286816
:100900008003F7D42078800769D5A868E968384063
:100910008A070721920FC902102802D0002813D09D
:1009200001E0022A10D0E068002846D028688843F9
:100930002169084328602868FF21013108432860A5
:10094000FFF718FE06462CE02A68520502D5E26839
:10095000002A89D06A687F231B029A4363691B02BD
:100960001A436A60002800E08DE00ED128688843B1
:10097000216908432860286801218004400F8140D4
:10098000A848FFF71DFCA8490860A8480068FFF7C1
:1009900013FE002877D122E0FFF7ECFD801B022830
:1009A0009FD828684005F7D568687F2109028843E9
:1009B000616909020843686011E02968FF2001307D
:1009C00081432960FFF7D6FD064605E098E0FFF772
:1009D000D1FD801B022884D828684005F7D42078F0
:1009E000934E00072ED5A8688006400F03280AD032
:1009F000A0690028306A16D0012108433062FFF751
:100A0000B9FD07460BE0306A80071BD5A0690028B6
:100A10009FD017E0FFF7AEFDC01B022870D8306AE8
:100A20008007F7D50EE0400840003062FFF7A2FDD6
:100A3000074604E0FFF79EFDC01B022860D8306A1D
:100A40008007F7D4207840076CD5A8680027800677
:100A5000400F042818D0E86BC00008D4E96B0120CF
:100A600000070143E963E96B0140012700917148E8
:100A70000168C90519D40168821511430160FFF7A7
:100A800079FD00900DE083E0F06980074AD5A06809
:100A900000287DD046E0FFF76DFD0099401A02283E
:100AA0002ED864480068C005F5D5A168012910D08A
:100AB00004200529F16911D049084900F161F16963
:100AC0008143F161A068002816D0FFF753FD009024
:100AD0000EE0F06901210843F061F3E70143F161A1
:100AE000F7E7FFF747FD0099411A534881426DD857
:100AF000F0698007F5D50EE0FFF73CFD009007E0B8
:100B000064E0FFF737FD0099411A4B4881425DD8F8
:100B1000F0698007F5D4002F04D0E96B01200007AD
:100B20008143E963E069002877D0A9688906490F05
:100B3000022951D001263606022828680DD0B0437C
:100B40002860E86880088000E860E8683B49084061
:100B5000E860FFF70FFD04463AE0B0432860FFF776
:100B600009FD074604E0FFF705FDC01B02282DD84C
:100B700028688001F7D4616A206AA26A0843E16AA2
:100B8000120211430843216B0843E9682C4A00E034
:100B900041E011400843E860286830432860E86875
:100BA000012109070843E860FFF7E4FC044604E07C
:100BB000FFF7E0FC001B022808D828688001F7D561
:100BC0002BE0FFF7D7FC001B022801D90320F8BD5A
:100BD00028688001F5D420E00128F8D0E868226A6E
:100BE0008107890F914216D17021626A01409142BA
:100BF00011D17F21A26A09020140120291420AD159
:100C00001F214904E26A0140914204D1400F216B47
:100C10004007884201D00120F8BD0020F8BD000047
:100C2000001002400024F4000C000020040000200A
:100C3000401002400070004088130000FFFFFEEFEC
:100C40008C80C11FF8B504000CD0606A0025002814
:100C50000AD02561656126464036A562707F00286E
:100C600008D00BE00120F8BD6168C81FFD38F2D044
:100C7000E561F0E73577204600F05CF802227277F4
:100C8000206801684023994301600723E1681B0243
:100C9000994201D9002001E0012000030F273F0203
:100CA000B94202D0994200D0A562FF2361680533A2
:100CB00019402127A368BF023B4019432369134011
:100CC000227D1943D207D20F11430123A2695B028F
:100CD0001A401143E26938231A401143226A8023E3
:100CE0001A401143A26A9B011A4011432268116005
:100CF000A1690422090C1140626A10231A401143B1
:100D0000626B08231A4011430F23E2681B021A404A
:100D10001143012212031040014320684160206802
:100D2000C16952109143C16125660120707700208E
:100D3000F8BD000010B586B0044614216846FFF7E0
:100D40003DFA1249206888421DD111480268811479
:100D50000A4302600068084005900D484038416B26
:100D6000012211434163406B6946104005904620C3
:100D70000090022001900020029003900490052032
:100D80000007FFF745FB06B010BD00000030014032
:100D900040100240FFB5054604464035287F002735
:100DA00081B01646012809D001202877FFF7E2FB21
:100DB0000090687F012804D0022795E0022005B04A
:100DC000F0BD0298002872D0002E70D00320687702
:100DD000002020660299A163A687E6872064A88088
:100DE000E8802065E0640122A068D203402190429F
:100DF00008D1206802688A430260206802680B02FA
:100E00001A43026020680268520602D402680A434C
:100E100002600721E06809028842606826D900283C
:100E200001D0012E1ED1A06B21680088C86006E0A9
:100E300020688168890709D5A16B0988C160A06B0A
:100E4000801CA063E08F401EE0870BE0FFF792FB61
:100E50000099411A0498814202D3401C02D039E023
:100E6000002837D0E08F0028E2D126E0002801D00A
:100E7000012E1FD1A06B21680078087306E020685E
:100E80008168890709D5A16B09780173A06B401CA3
:100E9000A063E08F401EE0870CE0FFF76BFB00993A
:100EA000411A0498814203D3401C03D012E01AE097
:100EB00000280FD0E08F0028E1D12046009A049945
:100EC00000F083F9002801D020202066A0680028C7
:100ED00002D005E0032707E02068C1688068009021
:100EE000206E002800D00127012068770020287795
:100EF000384664E7094910B5401E884201D90120EF
:100F000010BD074C60610321081F00F081FA00202A
:100F1000A06107202061002010BD0000FFFFFF003E
:100F200000E000E0FEE7000030B587B0142168461D
:100F3000FFF744F90D48416B012421434163406BA5
:100F4000052520402D070590002238212846FFF76F
:100F50000BFB002138200291039100900194694617
:100F60002846FFF755FA07B030BD000000100240D8
:100F700010B511480F490160FF2105314160002182
:100F80000722816012020161C2604161C1610122D8
:100F9000016252024162826181620722C262016380
:100FA00008214163FFF74EFE002801D0FFF71BFA2E
:100FB00010BD000000300140D0030020FEE770B5F6
:100FC00000242046B030C0B2002100F0D7F8002144
:100FD000022000F0D3F80021102000F0CFF8002507
:100FE0000121002000F0CAF86D1CEDB2802DF7D36E
:100FF000641CE4B2082CE4D370BD10B505242407AA
:10100000002220212046FFF7AFFAC820FFF7EEF9B3
:10101000012220212046FFF7A7FA0021AE2000F090
:10102000ADF80021022000F0A9F80021102000F006
:10103000A5F80021402000F0A1F80021812000F057
:101040009DF80021CF2000F099F80021A12000F0A8
:1010500095F80021C82000F091F80021A62000F0AA
:101060008DF80021A82000F089F800213F2000F031
:1010700085F80021D32000F081F80021084600F017
:101080007DF80021D52000F079F80021802000F0C3
:1010900075F80021D92000F071F80021F12000F04E
:1010A0006DF80021DA2000F069F80021122000F02C
:1010B00065F80021DB2000F061F80021402000F0FD
:1010C0005DF80021202000F059F80021022000F0F6
:1010D00055F800218D2000F051F80021142000F077
:1010E0004DF80021A42000F049F80021A62000F0CE
:1010F00045F80021AF2000F041F80021AF2000F0BA
:101100003DF8FFF75CFF10BD10B50446B031C8B222
:10111000002100F033F8A41C2006000F002110303D
:1011200000F02CF82007000F002100F027F810BD78
:10113000F8B515460E460746FFF7E6FF0E490024B0
:10114000A8014518285D012100F018F8641CE4B2DC
:10115000102CF7D3761CF1B23846FFF7D5FF0024E8
:10116000281920300078012100F008F8641CE4B24E
:10117000102CF5D3F8BD00001000002013B5052495
:101180002407002901D0012200E00022102120467E
:10119000FFF7EAF9002208212046FFF7E5F97D2351
:1011A000DB00012269460748FFF7F4FD0122082110
:1011B0002046FFF7D9F9012210212046FFF7D4F984
:1011C0001CBD0000D00300207047F8B50F460B4649
:1011D00015460092032104460022C90200F01CF8C3
:1011E0002026002812D13B4600228021204600956F
:1011F00000F07EF8002809D103213B460022490275
:101200002046009500F008F8002803D0206E3043F7
:1012100020660320F8BD0000FFB585B00E460446E9
:10122000002069460E9D17460871FFF7A3F9411B80
:101230000898451AFFF79EF90390206823210C3087
:1012400002902A4800684843000D684346E00320A6
:101250004002864206D1002F04D1029801786846E8
:10126000017100790898401C39D0FFF783F9039980
:10127000401AA84205D2002D03D0009800282BD098
:101280002BE020684168E022914341606068C11F03
:10129000FD390CD10121A068C903884202D049114F
:1012A000884204D1206801684022914301600120F6
:1012B000A16A4003814207D121680A6882430A601B
:1012C00021680A6802430A600120403460770020E8
:1012D0002077032009B0F0BD0025401E0090206853
:1012E00080683040B842B2D10020F3E70C00002003
:1012F000FFB581B01E4604460A9DFFF73BF9401B2F
:10130000351AFFF737F90746264800684001000DF7
:10131000684339E0701C38D0FFF72CF9C01BA84295
:1013200005D2002D03D0009800282BD02BE0206898
:101330004168E022914341606068C11FFD390CD1D2
:101340000121A068C903884202D04911884204D112
:10135000206801684022914301600120A16A400396
:10136000814207D121680A6882430A6021680A68BD
:1013700002430A6001204034607700202077032078
:1013800005B0F0BD0025401E0090206881680298DD
:10139000884305D0002103988142BBD10020EFE7AC
:1013A0000121F8E70C000020704710B5FFF7E8F8BE
:1013B00010BD10B592B034216846FEF7FFFE002440
:1013C00001200D940E940F9440021094FFF732F90F
:1013D00002200090C00103904020059004940794DF
:1013E0006846FFF73FFA002801D072B6FEE70720F3
:1013F0000D900E940F94002110940DA8FFF740F962
:10140000002801D072B6FEE712B010BD7047000090
:101410008307FF22DB0E9A408907090E99400028B6
:1014200008DB830809489B001B1818689043084391
:10143000186070470007000F0838830804489B00B5
:101440001B18D86990430843D861704700E400E056
:1014500000ED00E0FFF79CF8FFF7ABFFFFF764FD3E
:10146000FFF786FDFFF7C9FDFFF7A9FD0022114632
:101470001046FFF75DFE012200211220FFF758FE03
:10148000022200212420FFF753FE032200213620F0
:10149000FFF74EFE042200214820FFF749FEE5E752
:1014A000000000000000000000000000000000003C
:1014B000000000000000000000000000000000002C
:1014C0000100000002000000030000000400000012
:1014D00006000000070000000800000009000000EE
:1014E0000015000800000020D0030000860300085B
:1014F00010160008D0030020C806000004010008F0
:101500005007010000000400012324F4061006BE69
:101510002A2A2AEA0403123E000110044442490127
:10152000227F05031041401FF010080808F8080842
:1015300020A02020FE20222C203F00101240C1417C
:101540003F212120108B04FF030C122162017E80B9
:101550003185031CFC000102151B3800101180604E
:10156000F80700FC04C434858684F484845A000C93
:1015700019FF40300F01FF00024C807F41120245ED
:101580000211048515B0040C13FF00001F080400AD
:10159000FF0408070015821004898E8801110C01D0
:1015A00011601004402018380005134080403FF9B6
:1015B000153E24070CCA494848C84A0112BF1928D9
:1015C000121F1C121F4303317F0001031A36361EFF
:1015D0004540040912242425262424243C9A10087A
:1015E000FF403C03FF097F02031189FF40000C13F9
:1015F000FC96E584FC0008C8494AC8FF267F7904A8
:101600000ACF80601F00003F40407840000000008B
:04000005080000C12E
:00000001FF
